S0190000706F77657262616E6B5F766F6C746167652E73726563F1
S113000009C016C015C014C013C012C011C010C05E
S11300100FC00EC011241FBECFE9CDBF20E0A0E663
S1130020B0E001C01D92A136B207E1F773D0BBC0A6
S1130030E7CFC49A0895C498089588B3836088BBB1
S11300400895C098C19A0895C39AF3DFF6DF2FE3A9
S11300508EE795E0215080409040E1F700C0000019
S1130060F0DF2FE38EE795E0215080409040E1F7E8
S113007000C00000C3980895882391F090E0C39ACB
S1130080EFE2F5E73197F1F700C00000C398EFE223
S1130090F5E73197F1F700C000009F5F8913EFCFB8
S11300A0FFEB24ED81E0F15020408040E1F700C0F7
S11300B000000895BEDFC1DF83E0DEDFC39A2FEBCB
S11300C084ED91E0215080409040E1F700C00000B1
S11300D0C3980895B0DFB1DF82E0CEDFC39A2FEB7F
S11300E084ED91E0215080409040E1F700C0000091
S11300F0C39808959EDFA5DF81E0BEDFC39A2FEB8E
S113010084ED91E0215080409040E1F700C0000070
S1130110C398089584E088BB8FE187BB95DFEADF4D
S1130120C3E0D0E0B299FECFB29BFECF80916000D5
S113013090E00196BE0110D080936000813031F0D0
S113014018F0823029F006C0D5DFECCFC3DFEACF48
S1130150B1DFE8CFCFDFE6CF97FB072E16F400948C
S113016006D077FD08D00BD007FC05D03EF490955F
S113017081959F4F0895709561957F4F0895AA1BAF
S1130180BB1B51E107C0AA1FBB1FA617B70710F07E
S1130190A61BB70B881F991F5A95A9F780959095B0
S10D01A0BC01CD010895F894FFCFCF
S9030000FC
