S0190000706F77657262616E6B5F766F6C746167652E73726563F1
S113000009C016C015C014C013C012C011C010C05E
S11300100FC00EC011241FBECFE9CDBF20E0A0E663
S1130020B0E001C01D92A136B207E1F76DD0B5C0B2
S1130030E7CFB9980895C19AB99A0895B8980895E0
S1130040C098B89A0895F5DFF9DF2FE38EE795E0BD
S1130050215080409040E1F700C00000F1DF2FE321
S11300608EE795E0215080409040E1F700C0000009
S11300700895882391F090E0C29AEFE2F5E7319772
S1130080F1F700C00000C298EFE2F5E73197F1F70D
S113009000C000009F5F8913EFCF8FE59AEE0197B0
S11300A0F1F700C000000895C4DFC8DF83E0E1DF9A
S11300B0C29A2FE38EE795E0215080409040E1F70B
S11300C000C00000C2980895B6DFB8DF82E0D1DF37
S11300D0C29A2FE38EE795E0215080409040E1F7EB
S11300E000C00000C2980895A4DFAADF81E0C1DF48
S11300F0C29A2FE38EE795E0215080409040E1F7CB
S113010000C00000C298089580E188BB84E187BBE9
S11301109ADFEADFC3E0D0E0B499FECFB49BFECF10
S11301208091600090E00196BE0110D08093600041
S1130130813031F018F0823029F006C0D5DFECCFE1
S1130140C3DFEACFB1DFE8CFCFDFE6CF97FB072EDF
S113015016F4009406D077FD08D00BD007FC05D028
S11301603EF4909581959F4F0895709561957F4FCA
S11301700895AA1BBB1B51E107C0AA1FBB1FA617EA
S1130180B70710F0A61BB70B881F991F5A95A9F73C
S111019080959095BC01CD010895F894FFCFA1
S9030000FC
